:020000040800F2
:10000000340400204D030008BD030008BD030008B0
:10001000BD030008BD030008BD0300080000000088
:10002000000000000000000000000000BD03000808
:10003000BD03000800000000BD030008BD03000868
:10004000BD030008BD030008BD030008BD03000890
:10005000BD030008BD030008BD030008BD03000880
:10006000BD030008BD030008BD030008BD03000870
:10007000BD030008BD030008BD030008BD03000860
:10008000BD030008BD030008BD0300080000000018
:10009000000000000000000000000000BD03000898
:1000A000BD030008BD030008BD030008BD03000830
:1000B000BD0300085D0F0008BD030008BD03000874
:1000C000BD030008BD030008BD030008BD03000810
:1000D000BD030008BD030008BD030008BD03000800
:1000E000BD030008BD030008BD03000800000000B8
:1000F0000000000000000000000000000000000000
:1001000000000000000000000000000000000000EF
:10011000000000000000000099100008BD03000866
:100120005FF808F180B485B000AF786039604FF0B7
:100130000003FB817B681B88FB817A684FF4305396
:10014000C4F201039A421FD07A684FF45053C4F2AC
:1001500001039A4218D07B68B3F1804F14D07A68BB
:100160004FF48063C4F200039A420DD07A684FF4D2
:100170000063C4F200039A4206D07A684FF44063E9
:10018000C4F200039A4208D1FB8923F07003FB817B
:100190003B685A88FB891343FB817A684FF480538C
:1001A000C4F200039A420FD07A684FF4A053C4F20D
:1001B00000039A4208D0FB8923F44073FB813B681B
:1001C000DA88FB891343FB817B68FA891A803B68D4
:1001D0009A887B689A853B681A887B681A857A6852
:1001E0004FF43053C4F201039A421BD07A684FF4A3
:1001F0005053C4F201039A4214D07A684FF48043FA
:10020000C4F201039A420DD07A684FF48843C4F2D5
:1002100001039A4206D07A684FF49043C4F2010376
:100220009A4204D13B681B7A1A467B681A867B681F
:100230004FF001029A8207F11407BD4680BC704757
:1002400080B483B000AF78607B684FF6FF729A800D
:100250007B684FF000021A807B684FF00002DA8062
:100260007B684FF000025A807B684FF000021A72E0
:1002700007F10C07BD4680BC704700BF80B483B057
:1002800000AF78600B46FB70FB78002B08D07B68D2
:100290001B889BB243F001039AB27B681A8007E087
:1002A0007B681B889BB223F001039AB27B681A809B
:1002B00007F10C07BD4680BC704700BF80B483B017
:1002C00000AF786013460A467A807B707B78002BFB
:1002D00008D07B689B899AB27B8813439AB27B686B
:1002E0009A810AE07B689B899AB27B886FEA030354
:1002F0009BB213409AB27B689A8107F10C07BD4606
:1003000080BC704780B483B000AF78600B467B80C0
:100310007B886FEA03039AB27B681A8207F10C07A5
:10032000BD4680BC704700BF80B483B000AF78602A
:100330000B467B807B886FEA03039AB27B681A8244
:1003400007F10C07BD4680BC704700BF80B582B086
:1003500000AF41F2D463C0F600037B6040F20003BB
:10036000C2F200033B600BE07B681A683B681A60CE
:100370003B6803F104033B607B6803F104037B608B
:100380003A6840F20003C2F200039A42ECD30948F3
:1003900009494FF000028842B8BF40F8042BFFF62D
:1003A000FAAF00F00FF800F0B5FD07F10807BD4601
:1003B00080BD0000000000203800002080B400AFA5
:1003C000FEE700BF80B500AF4FF48053C4F20203D4
:1003D0004FF48052C4F20202126842F001021A6025
:1003E0004FF48052C4F202024FF48053C4F202036D
:1003F00059684FF00003CFF6FF030B4053604FF4F2
:100400008053C4F202034FF48052C4F20202126815
:1004100022F0847222F480321A604FF48053C4F2C6
:1004200002034FF48052C4F20202126822F48022C6
:100430001A604FF48053C4F202034FF48052C4F2A6
:100440000202526822F4FE025A604FF48053C4F252
:1004500002034FF41F029A604FF48053C4F2020368
:100460004FF00002DA6200F009F84FF46D43CEF26B
:1004700000034FF000629A6080BD00BF80B500AFFE
:1004800000F002F880BD00BF80B483B000AF4FF031
:1004900000037B604FF000033B604FF48053C4F2D5
:1004A00002034FF48052C4F20202126842F4803216
:1004B0001A604FF48053C4F202031B6803F4003344
:1004C0003B607B6803F101037B603B68002B03D139
:1004D0007B68B3F5A06FECD14FF48053C4F20203F4
:1004E0001B6803F40033002B03D04FF001033B6083
:1004F00002E04FF000033B603B68012B6DD14FF4ED
:100500008053C4F202034FF48052C4F202025268D4
:100510005A604FF48053C4F202034FF48052C4F285
:10052000020252685A604FF48053C4F202034FF43F
:100530008052C4F2020252685A604FF48053C4F2EF
:1005400002034FF48052C4F20202526822F47C1279
:100550005A604FF48053C4F202034FF48052C4F245
:100560000202526842F498125A604FF48053C4F267
:1005700002034FF48052C4F20202126842F0807209
:100580001A6000BF4FF48053C4F202031B6803F0EB
:100590000073002BF6D04FF48053C4F202034FF4E3
:1005A0008052C4F20202526822F003025A604FF4F1
:1005B0008053C4F202034FF48052C4F20202526824
:1005C00042F002025A6000BF4FF48053C4F20203AB
:1005D0005B6803F00C03082BF6D107F10C07BD464E
:1005E00080BC704780B489B000AF786039604FF04C
:1005F0000003FB614FF000033B614FF00003BB6160
:100600004FF00003FB604FF000037B614FF00003ED
:10061000BB603B68DB7803F00F03FB613B68DB7872
:1006200003F01003002B04D03B689B78FA69134356
:10063000FB613B681B88DBB2002B4ED07B681B68DC
:100640007B614FF00003BB6141E0BB694FF00102E9
:1006500002FA03F3FB603B681B881A46FB681340F1
:100660003B613A69FB689A422DD1BB694FEA83032B
:10067000FB60FB684FF00F0202FA03F3BB60BB683C
:100680006FEA03037A6913407B61FB68FA6902FA37
:1006900003F37A6913437B613B68DB78282B07D12E
:1006A000BB694FF0010202FA03F27B685A610AE06B
:1006B0003B68DB78482B06D1BB694FF0010202FA98
:1006C00003F27B681A61BB6903F10103BB61BB697B
:1006D000072BBAD97B687A691A603B681B88FF2BA5
:1006E00053D97B685B687B614FF00003BB6146E0D8
:1006F000BB6903F108034FF0010202FA03F3FB6048
:100700003B681B881A46FB6813403B613A69FB68EB
:100710009A4230D1BB694FEA8303FB60FB684FF01C
:100720000F0202FA03F3BB60BB686FEA03037A6946
:1007300013407B61FB68FA6902FA03F37A69134399
:100740007B613B68DB78282B08D1BB6903F1080388
:100750004FF0010202FA03F27B685A613B68DB78D2
:10076000482B08D1BB6903F108034FF0010202FADC
:1007700003F27B681A61BB6903F10103BB61BB69CA
:10078000072BB5D97B687A695A6007F12407BD4603
:1007900080BC704780B487B000AF78600B46FB70B8
:1007A0004FF000033B614FF00003FB604FF000038C
:1007B0007B614FF00003BB607B68002B06DA4FF0D3
:1007C0000003C4F20103DB697B6105E04FF0000325
:1007D000C4F201035B687B617B6803F470234FEA1A
:1007E0001343BB607B684FEA03434FEA13433B610B
:1007F0007B6803F44013B3F5401F10D17B6923F0ED
:1008000070637B614FF00003C4F201034FF00002FC
:10081000C4F20102526822F070625A6026E07B68DE
:1008200003F48013002B10D0BB684FF0030202FAD0
:1008300003F3FB60FB686FEA03037A6913407B6193
:100840007B6943F070637B6110E07B684FEA535330
:100850004FEA03133A6902FA03F36FEA03037A6972
:1008600013407B617B6943F070637B61FB78002BF5
:100870000AD07B684FEA53534FEA03133A6902FAEE
:1008800003F37A6913437B617B68002B06DA4FF030
:100890000003C4F201037A69DA6105E04FF0000356
:1008A000C4F201037A695A6007F11C07BD4680BC97
:1008B000704700BF80B485B000AF786039604FF0FA
:1008C0000003FB604FF00003BB604FF4E843C4F249
:1008D00000031B68FB607B6840F6FE7202FA03F3BC
:1008E0006FEA0303FA681340FB603B681A683B68D1
:1008F0005B681A433B689B681A433B68DB68134399
:10090000BB607B68BA6802FA03F3FA681343FB60C2
:100910004FF4E843C4F20003FA681A6007F11407C1
:10092000BD4680BC704700BF80B483B000AF786024
:100930000B46FB70FB78002B10D04FF4E843C4F259
:1009400000034FF4E842C4F2000211687A684FF0E5
:10095000010000FA02F20A431A6011E04FF4E84382
:10096000C4F200034FF4E842C4F2000211687A684E
:100970004FF0010000FA02F26FEA02020A401A6028
:1009800007F10C07BD4680BC704700BF80B500AFC3
:100990004FF0010000F008FE4FF0010000F0E4FD10
:1009A00000F086FB4FF4803000F0D6FB00F018FC1E
:1009B0000346012B2FD14FF0000000F0B7FC4FF0A1
:1009C000000000F0D3FC4FF0000000F0EFFC4FF40B
:1009D000804000F00DFD4FF480304FF4802100F096
:1009E00041FC4FF0010000F061FC00BF4FF0390006
:1009F00000F072FD0346002BF8D04FF0020000F02B
:100A000065FC00BF00F082FC0346082BFAD14FF0D2
:100A1000000000F017FC80BD80B58CB000AF4FF037
:100A20001200C2F200004FF0010100F02BFD4FF068
:100A300036033B744FF00003BB744FF00103FB74AB
:100A400007F11003184600F0D1FD4FF01D033B7471
:100A50004FF00003BB744FF00103FB7407F1100368
:100A6000184600F0C3FD4FF001033B854FF02F0304
:100A7000BB844FF000037B854FF00003FB8407F13C
:100A800024034FF48060C4F200001946FFF74AFBCC
:100A90004FF48060C4F200004FF00101FFF732FC18
:100AA0004FF48060C4F200004FF001014FF00102EA
:100AB000FFF704FC4FF48060C4F200004FF0010126
:100AC000FFF7DCFB07F124031846FFF7B9FB4FF4EF
:100AD000C8633B854FF00E03BB844FF000037B855A
:100AE0004FF00003FB8407F124034FF48050C4F25D
:100AF00000001946FFF716FB4FF48050C4F20000C7
:100B00004FF00101FFF7FEFB4FF48050C4F20000EC
:100B10004FF001014FF00102FFF7D0FB4FF000034F
:100B20003B604FF000037B604FF00203FB603B46ED
:100B30004FF000001946FFF7BDFE4FF000004FF0E8
:100B40000101FFF7F1FE07F13007BD4680BD00BF90
:100B500080B582B000AF4FF01D004FF0010100F0F2
:100B600067FC4FF40070C0F230004FF00101FFF756
:100B700011FE4FF44060C0F21A004FF00101FFF780
:100B800009FE4FF01003BB804FF00303BB714FF021
:100B90000003FB7107F104034FF40060C4F201008D
:100BA0001946FFF71FFD07F10807BD4680BD00BFCE
:100BB00080B483B000AF4FF00003FB715AE0FA79C4
:100BC00040F20403C2F200034FEA02129B184FF0F6
:100BD00000021A70FA7940F20403C2F200034FEAED
:100BE00002129B184FF000025A70FA7940F2040387
:100BF000C2F200034FEA02129B1803F104034FF004
:100C000000021A60FA7940F20403C2F200034FEACC
:100C100002129B1803F108034FF000021A80FA79C0
:100C200040F20403C2F200034FEA02129B1803F1E0
:100C300008034FF000025A80FA7940F20403C2F22E
:100C400000034FEA02129B1803F108034FF0000261
:100C50009A80FA7940F20403C2F200034FEA0212CA
:100C60009B1803F108034FF00002DA80FB7903F1CF
:100C70000103FB71FB79022BA1D940F23603C2F2CA
:100C800000034FF000021A7007F10C07BD4680BC4C
:100C9000704700BF80B483B000AFF88079717A806C
:100CA0003B8000BF7A7940F20403C2F200034FEAAE
:100CB00002129B185B78012BF4D07A7940F204037E
:100CC000C2F200034FEA02129B1803F108035B888B
:100CD000002BE7D17A7940F20403C2F200034FEA15
:100CE00002129B184FF000021A707979FA8840F2CC
:100CF0000403C2F200034FEA01115B1803F104037D
:100D00001A607A7940F20403C2F200034FEA021239
:100D10009B1803F108037A881A807A7940F2040359
:100D2000C2F200034FEA02129B1803F108033A884B
:100D30005A807979FB884FEAC3024AF22013C0F245
:100D4000070393FBF2F39AB240F20403C2F20003EA
:100D50004FEA01115B1803F108039A807A7940F297
:100D60000403C2F200034FEA02129B1803F10803C6
:100D70004FF00002DA807A7940F20403C2F20003F5
:100D80004FEA02129B184FF001025A7007F10C074C
:100D9000BD4680BC704700BF80B483B000AF03463F
:100DA000FB71F979FA7940F20403C2F200034FEAC9
:100DB00002129B181B786FEA0303DAB240F20403B5
:100DC000C2F200034FEA01115B181A7007F10C0719
:100DD000BD4680BC704700BF80B483B000AF4FF009
:100DE0000003FB718CE0FA7940F20403C2F20003C5
:100DF0004FEA02129B185B78012B57D1FA7940F227
:100E00000403C2F200034FEA02129B1803F1080325
:100E10001B88002B19D0FA7940F20403C2F20003B8
:100E20004FEA02115B1803F108031B8803F1FF333B
:100E300099B240F20403C2F200034FEA02129B1877
:100E400003F108030A461A8056E0FA7940F20403D7
:100E5000C2F200034FEA02129B184FF000025A70D0
:100E6000FA7940F20403C2F200034FEA02129B181F
:100E70004FF000021A70FA7940F20403C2F2000344
:100E80004FEA02129B1803F108034FF000029A8008
:100E9000FA7940F20403C2F200034FEA02129B18EF
:100EA00003F108034FF00002DA8025E0FA7940F2FE
:100EB0000403C2F200034FEA02129B1803F1080375
:100EC0005B88002B18D0FA7940F20403C2F20003C9
:100ED0004FEA02115B1803F108035B8803F1FF334B
:100EE00099B240F20403C2F200034FEA02129B18C7
:100EF00003F108030A465A80FB7903F10103FB71F1
:100F0000FB79022B7FF66FAF07F10C07BD4680BC63
:100F1000704700BF80B582B000AFFFF737FDFFF725
:100F200017FEFFF745FEFFF777FD4FF00003FB715B
:100F30004FF0C8004FF001014FF4FA724FF0640314
:100F4000FFF7A8FE4FF461704FF000014FF4FA7202
:100F50004FF06403FFF79EFEEAE700BF80B582B062
:100F600000AF4FF00003FB7150E0FA7940F2040348
:100F7000C2F200034FEA02129B185B78012B41D1A9
:100F8000FA7940F20403C2F200034FEA02115B183F
:100F900003F10803DB8803F1010399B240F2040373
:100FA000C2F200034FEA02129B1803F108030A463B
:100FB000DA80FA7940F20403C2F200034FEA021227
:100FC0009B1803F10803DA88F97940F20403C2F2AE
:100FD00000034FEA01115B1803F108039B889A4252
:100FE00010D1FA7940F20403C2F200034FEA021270
:100FF0009B1803F108034FF00002DA80FB791846D2
:10100000FFF7CAFEFB7903F10103FB71FB79022BA9
:10101000ABD94FF4E843C4F2000340F20402C2F239
:1010200000021278114640F20402C2F20002127C61
:10103000891840F20402C2F2000292F820208A18B5
:101040009A6040F20003C2F200031A8840F2F313E0
:101050009A4208D140F20003C2F200034FF00002AE
:101060001A80FFF7B9FE40F20003C2F200031B88AA
:1010700003F101039AB240F20003C2F200031A80A6
:101080004FF48060C4F200004FF00101FFF74CF90B
:1010900007F10807BD4680BD80B500AF4FF4805012
:1010A000C4F200004FF00101FFF73EF980BD00BF20
:1010B00080B400AF4FF48053C4F202034FF4805267
:1010C000C4F20202126842F001021A604FF4805228
:1010D000C4F202024FF48053C4F2020359684FF085
:1010E0000003CFF6FF030B4053604FF48053C4F26C
:1010F00002034FF48052C4F20202126822F084729A
:1011000022F480321A604FF48053C4F202034FF489
:101110008052C4F20202126822F480221A604FF454
:101120008053C4F202034FF48052C4F202025268A8
:1011300022F4FE025A604FF48053C4F202034FF4CB
:101140001F029A604FF48053C4F202034FF0000272
:10115000DA62BD4680BC704780B483B000AF78606F
:101160004FF48053C4F202034FF48052C4F20202DF
:10117000126822F480321A604FF48053C4F20203E2
:101180004FF48052C4F20202126822F480221A60E4
:101190007B68B3F5803F03D0B3F5802F0DD019E005
:1011A0004FF48053C4F202034FF48052C4F202029F
:1011B000126842F480321A600DE04FF48053C4F29A
:1011C00002034FF48052C4F20202126842F4A022D9
:1011D0001A6000E000BF07F10C07BD4680BC7047F5
:1011E00080B582B000AF4FF000033B604FF00003CA
:1011F000FB714FF00003BB714FF0310000F06CF950
:101200000346BB713B6803F101033B603B68B3F5E8
:10121000A06F02D0BB79002BEED04FF0310000F070
:101220005BF90346002B03D04FF00103FB7102E092
:101230004FF00003FB71FB79184607F10807BD4624
:1012400080BD00BF80B483B000AF0346FB714FF098
:101250000003C4F24223FA791A6007F10C07BD4675
:1012600080BC704780B485B000AF786039604FF0C3
:101270000003FB604FF48053C4F202035B68FB6021
:10128000FB6823F47413FB607A683B681343FA68C5
:101290001343FB604FF48053C4F20203FA685A60B0
:1012A00007F11407BD4680BC704700BF80B483B00F
:1012B00000AF0346FB714FF06003C4F24223FA799A
:1012C0001A6007F10C07BD4680BC704780B485B03A
:1012D00000AF78604FF00003FB604FF48053C4F21E
:1012E00002035B68FB60FB6823F00303FB60FA68A2
:1012F0007B681343FB604FF48053C4F20203FA6827
:101300005A6007F11407BD4680BC704780B400AF37
:101310004FF48053C4F202035B68DBB203F00C03AA
:10132000DBB21846BD4680BC704700BF80B485B0B4
:1013300000AF78604FF00003FB604FF48053C4F2BD
:1013400002035B68FB60FB6823F0F003FB60FA6854
:101350007B681343FB604FF48053C4F20203FA68C6
:101360005A6007F11407BD4680BC704780B485B051
:1013700000AF78604FF00003FB604FF48053C4F27D
:1013800002035B68FB60FB6823F4E063FB60FA68C0
:101390007B681343FB604FF48053C4F20203FA6886
:1013A0005A6007F11407BD4680BC704780B485B011
:1013B00000AF78604FF00003FB604FF48053C4F23D
:1013C00002035B68FB60FB6823F46053FB607B688F
:1013D0004FEAC303FA681343FB604FF48053C4F22F
:1013E0000203FA685A6007F11407BD4680BC7047D3
:1013F00080B485B000AF78604FF00003FB604FF41D
:101400008053C4F202035B68FB60FB6823F4404333
:10141000FB60FA687B681343FB604FF48053C4F2AF
:101420000203FA685A6007F11407BD4680BC704792
:1014300080B483B000AF78600B46FB70FB78002B64
:101440000CD04FF48053C4F202034FF48052C4F224
:10145000020291697A680A439A610DE04FF4805361
:10146000C4F202034FF48052C4F2020291697A6816
:101470006FEA02020A409A6107F10C07BD4680BC80
:10148000704700BF80B483B000AF78600B46FB703C
:10149000FB78002B0CD04FF48053C4F202034FF4BE
:1014A0008052C4F20202D1697A680A43DA610DE01F
:1014B0004FF48053C4F202034FF48052C4F202028C
:1014C000D1697A686FEA02020A40DA6107F10C0713
:1014D000BD4680BC704700BF80B487B000AF0346F4
:1014E000FB714FF00003FB604FF000037B614FF096
:1014F0000003FB74FB794FEA5313DBB2FB60FB681C
:10150000012B06D14FF48053C4F202031B687B61A8
:101510000FE0FB68022B06D14FF48053C4F20203A4
:101520001B6A7B6105E04FF48053C4F202035B6ADF
:101530007B61FB7903F01F03FB60FB687A6922FA89
:1015400003F303F00103002B03D04FF00103FB74FE
:1015500002E04FF00003FB74FB7C184607F11C0708
:10156000BD4680BC704700BF80B485B000AF7860D6
:101570004FF00003FB604FF40053C4F202031B68FA
:10158000FB60FB6803F03803FB60FA687B68134379
:10159000FB604FF40053C4F20203FA681A6007F1CB
:1015A0001407BD4680BC704780B483B000AF78603C
:1015B0004FF40053C4F202034FF40052C4F202028B
:1015C000126822F010021A604FF40053C4F20203B2
:1015D0004FF40052C4F2020211687A680A431A609A
:1015E00007F10C07BD4680BC704700BF80B487B0D0
:1015F00000AF78604FF000037B614FF000033B6168
:101600004FF00F03FB607B68DB78002B47D04FF473
:101610006D43CEF20003DB686FEA030303F4E0637B
:101620004FEA13237B617B69C3F104033B617B6950
:10163000FA6822FA03F3FB607B685B781A463B6921
:1016400002FA03F37B617B689B781A46FB681340C0
:101650007A6913437B617B694FEA03137B614FF423
:101660006143CEF200037A68127811467A69D2B2E9
:101670005B1883F800234FF46143CEF200037A68CD
:1016800012784FEA5212D2B27968097801F01F013C
:101690004FF0010000FA01F143F8221014E04FF47A
:1016A0006143CEF200037A6812784FEA5212D2B246
:1016B0007968097801F01F014FF0010000FA01F18B
:1016C00002F1200243F8221007F11C07BD4680BC3E
:0416D000704700BFA0
:0400000508000000EF
:00000001FF
