:020000040800F2
:100000000C04002039070008A9070008A907000808
:10001000A9070008A9070008A907000800000000B8
:10002000000000000000000000000000A907000818
:10003000A907000800000000A9070008A907000898
:10004000A9070008A9070008A9070008A9070008D0
:10005000A9070008A9070008A9070008A9070008C0
:10006000A9070008A9070008A9070008A9070008B0
:10007000A9070008A9070008A9070008A9070008A0
:10008000A9070008A9070008A90700080000000048
:10009000000000000000000000000000A9070008A8
:1000A000A9070008A9070008A9070008A907000870
:1000B000A9070008A9070008A9070008A907000860
:1000C000A9070008A9070008A9070008A907000850
:1000D000A9070008A9070008A9070008A907000840
:1000E000A9070008A9070008A907000800000000E8
:1000F0000000000000000000000000000000000000
:1001000000000000000000000000000000000000EF
:100110000000000000000000751100088D110008AB
:100120005FF808F180B582B000AF78607A684FF46C
:100130003053C4F201039A420CD14FF400604FF0E7
:10014000010101F06DFA4FF400604FF0000101F081
:1001500067FA3BE17B68B3F1804F0CD14FF00100AF
:100160004FF0010101F086FA4FF001004FF000015D
:1001700001F080FA2AE17A684FF48063C4F2000348
:100180009A420CD14FF002004FF0010101F072FAD7
:100190004FF002004FF0000101F06CFA16E17A68AE
:1001A0004FF40063C4F200039A420CD14FF00400F4
:1001B0004FF0010101F05EFA4FF004004FF0000132
:1001C00001F058FA02E17A684FF44063C4F2000388
:1001D0009A420CD14FF008004FF0010101F04AFAA9
:1001E0004FF008004FF0000101F044FAEEE07A68A9
:1001F0004FF48053C4F200039A420CD14FF0100028
:100200004FF0010101F036FA4FF010004FF00001FD
:1002100001F030FADAE07A684FF4A053C4F2000338
:100220009A420CD14FF020004FF0010101F022FA68
:100230004FF020004FF0000101F01CFAC6E07A6890
:100240004FF45053C4F201039A420CD14FF40050C2
:100250004FF0010101F0E4F94FF400504FF00001BC
:1002600001F0DEF9B2E07A684FF49843C4F201037A
:100270009A420CD14FF400204FF0010101F0D0F967
:100280004FF400204FF0000101F0CAF99EE07A68B7
:100290004FF4A043C4F201039A420CD14FF48010F2
:1002A0004FF0010101F0BCF94FF480104FF0000154
:1002B00001F0B6F98AE07A684FF4A843C4F201036A
:1002C0009A420CD14FF400104FF0010101F0A8F94F
:1002D0004FF400104FF0000101F0A2F976E07A68C7
:1002E0004FF4C053C4F200039A420CD14FF04000C7
:1002F0004FF0010101F0BEF94FF040004FF0000156
:1003000001F0B8F962E07A684FF4E053C4F20003F8
:100310009A420CD14FF080004FF0010101F0AAF990
:100320004FF080004FF0000101F0A4F94EE07A6830
:100330004FF40053C4F200039A420CD14FF4807082
:100340004FF0010101F096F94FF480704FF0000179
:1003500001F090F93AE07A684FF48043C4F2010367
:100360009A420CD14FF480304FF0010101F058F95E
:100370004FF480304FF0000101F052F926E07A6826
:100380004FF48843C4F201039A420CD14FF4003079
:100390004FF0010101F044F94FF400304FF000013B
:1003A00001F03EF912E07A684FF49043C4F2010381
:1003B0009A420BD14FF480204FF0010101F030F947
:1003C0004FF480204FF0000101F02AF907F10807EF
:1003D000BD4680BD80B485B000AF786039604FF015
:1003E0000003FB817B681B88FB817A684FF43053E4
:1003F000C4F201039A421FD07A684FF45053C4F2FA
:1004000001039A4218D07B68B3F1804F14D07A6808
:100410004FF48063C4F200039A420DD07A684FF41F
:100420000063C4F200039A4206D07A684FF4406336
:10043000C4F200039A4208D1FB8923F07003FB81C8
:100440003B685A88FB891343FB817A684FF48053D9
:10045000C4F200039A420FD07A684FF4A053C4F25A
:1004600000039A4208D0FB8923F44073FB813B6868
:10047000DA88FB891343FB817B68FA891A803B6821
:100480009A887B689A853B681A887B681A857A689F
:100490004FF43053C4F201039A421BD07A684FF4F0
:1004A0005053C4F201039A4214D07A684FF4804347
:1004B000C4F201039A420DD07A684FF48843C4F223
:1004C00001039A4206D07A684FF49043C4F20103C4
:1004D0009A4204D13B681B7A1A467B681A867B686D
:1004E0004FF001029A8207F11407BD4680BC7047A5
:1004F00080B485B000AF786039604FF000037B8135
:100500004FF00003FB814FF00003BB817B681B8C25
:100510009BB223F010039AB27B681A847B681B8C11
:10052000FB817B689B88BB817B681B8B7B817B8984
:1005300023F4E0437B817B8923F440737B813B6818
:100540001B884FEA03239AB27B8913437B81FB8983
:1005500023F02003FB813B681B894FEA03139AB207
:10056000FB891343FB813B685B884FEA03139AB214
:10057000FB891343FB817A684FF43053C4F20103C3
:100580009A4206D07A684FF45053C4F201039A425B
:100590002FD1FB8923F08003FB813B685B894FEA05
:1005A00003139AB2FB891343FB81FB8923F04003B9
:1005B000FB813B689B884FEA03139AB2FB89134384
:1005C000FB81BB8923F48063BB81BB8923F4006377
:1005D000BB813B689B894FEA83039AB2BB89134373
:1005E000BB813B68DB894FEA83039AB2BB89134323
:1005F000BB817B68BA899A807B687A891A833B6859
:10060000DA887B681A877B68FA891A8407F11407ED
:10061000BD4680BC704700BF80B483B000AF786037
:100620000B46FB70FB78002B08D07B681B889BB2C5
:1006300043F001039AB27B681A8007E07B681B884D
:100640009BB223F001039AB27B681A8007F10C0772
:10065000BD4680BC704700BF80B483B000AF7860F7
:100660000B46FB70FB78002B0CD07B68B3F8443052
:100670009BB26FEA43436FEA53439AB27B68A3F895
:1006800044200BE07B68B3F844309BB24FEA43430D
:100690004FEA53439AB27B68A3F8442007F10C0752
:1006A000BD4680BC704700BF80B483B000AF7860A7
:1006B00013460A467A807B707B78002B08D07B68D3
:1006C0009B899AB27B8813439AB27B689A810AE02D
:1006D0007B689B899AB27B886FEA03039BB21340C5
:1006E0009AB27B689A8107F10C07BD4680BC7047BF
:1006F00080B483B000AF78600B467B807B886FEA64
:1007000003039AB27B681A8207F10C07BD4680BCCE
:10071000704700BF80B483B000AF78600B467B8029
:100720007B886FEA03039AB27B681A8207F10C0791
:10073000BD4680BC704700BF80B582B000AF41F6B7
:100740005853C0F600037B6040F20003C2F200037E
:100750003B600BE07B681A683B681A603B6803F1FA
:1007600004033B607B6803F104037B603A6840F25A
:100770000003C2F200039A42ECD3094809494FF042
:1007800000028842B8BF40F8042BFFF6FAAF00F031
:100790000FF800F0A9FC07F10807BD4680BD000076
:1007A000000000201000002080B400AFFEE700BF72
:1007B00080B500AF4FF48053C4F202034FF480526F
:1007C000C4F20202126842F001021A604FF4805231
:1007D000C4F202024FF48053C4F2020359684FF08E
:1007E0000003CFF6FF030B4053604FF48053C4F275
:1007F00002034FF48052C4F20202126822F08472A3
:1008000022F480321A604FF48053C4F202034FF492
:100810008052C4F20202126822F480221A604FF45D
:100820008053C4F202034FF48052C4F202025268B1
:1008300022F4FE025A604FF48053C4F202034FF4D4
:100840001F029A604FF48053C4F202034FF000027B
:10085000DA6200F009F84FF46D43CEF200034FF076
:1008600000629A6080BD00BF80B500AF00F002F862
:1008700080BD00BF80B483B000AF4FF000037B6049
:100880004FF000033B604FF48053C4F202034FF477
:100890008052C4F20202126842F480321A604FF4AD
:1008A0008053C4F202031B6803F400333B607B688F
:1008B00003F101037B603B68002B03D17B68B3F538
:1008C000A06FECD14FF48053C4F202031B6803F411
:1008D0000033002B03D04FF001033B6002E04FF0E8
:1008E00000033B603B68012B6DD14FF48053C4F291
:1008F00002034FF48052C4F2020252685A604FF46D
:100900008053C4F202034FF48052C4F202025268D0
:100910005A604FF48053C4F202034FF48052C4F281
:10092000020252685A604FF48053C4F202034FF43B
:100930008052C4F20202526822F47C125A604FF4D0
:100940008053C4F202034FF48052C4F20202526890
:1009500042F498125A604FF48053C4F202034FF4E9
:100960008052C4F20202126842F080721A6000BF24
:100970004FF48053C4F202031B6803F00073002B92
:10098000F6D04FF48053C4F202034FF48052C4F205
:100990000202526822F003025A604FF48053C4F2FC
:1009A00002034FF48052C4F20202526842F0020283
:1009B0005A6000BF4FF48053C4F202035B6803F037
:1009C0000C03082BF6D107F10C07BD4680BC70471D
:1009D00080B489B000AF786039604FF00003FB61EC
:1009E0004FF000033B614FF00003BB614FF0000389
:1009F000FB604FF000037B614FF00003BB603B687E
:100A0000DB7803F00F03FB613B68DB7803F0100336
:100A1000002B04D03B689B78FA691343FB613B6869
:100A20001B88DBB2002B4ED07B681B687B614FF0CC
:100A30000003BB6141E0BB694FF0010202FA03F31E
:100A4000FB603B681B881A46FB6813403B613A69B0
:100A5000FB689A422DD1BB694FEA8303FB60FB68B8
:100A60004FF00F0202FA03F3BB60BB686FEA0303A7
:100A70007A6913407B61FB68FA6902FA03F37A69C9
:100A800013437B613B68DB78282B07D1BB694FF0B0
:100A9000010202FA03F27B685A610AE03B68DB78E4
:100AA000482B06D1BB694FF0010202FA03F27B68C2
:100AB0001A61BB6903F10103BB61BB69072BBAD99A
:100AC0007B687A691A603B681B88FF2B53D97B6867
:100AD0005B687B614FF00003BB6146E0BB6903F1DB
:100AE00008034FF0010202FA03F3FB603B681B8826
:100AF0001A46FB6813403B613A69FB689A4230D161
:100B0000BB694FEA8303FB60FB684FF00F0202FAF8
:100B100003F3BB60BB686FEA03037A6913407B6130
:100B2000FB68FA6902FA03F37A6913437B613B6855
:100B3000DB78282B08D1BB6903F108034FF00102D1
:100B400002FA03F27B685A613B68DB78482B08D1D4
:100B5000BB6903F108034FF0010202FA03F27B685C
:100B60001A61BB6903F10103BB61BB69072BB5D9EE
:100B70007B687A695A6007F12407BD4680BC7047DC
:100B800080B483B000AF786013460A467A807B70E9
:100B90007B78002B03D07A887B681A6102E07A8820
:100BA0007B685A6107F10C07BD4680BC704700BFE7
:100BB00080B487B000AF78600B46FB704FF0000345
:100BC0003B614FF00003FB604FF000037B614FF08F
:100BD0000003BB607B68002B06DA4FF00003C4F211
:100BE0000103DB697B6105E04FF00003C4F2010300
:100BF0005B687B617B6803F470234FEA1343BB603F
:100C00007B684FEA03434FEA13433B617B6803F47D
:100C10004013B3F5401F10D17B6923F070637B61F3
:100C20004FF00003C4F201034FF00002C4F20102CE
:100C3000526822F070625A6026E07B6803F48013E9
:100C4000002B10D0BB684FF0030202FA03F3FB60E5
:100C5000FB686FEA03037A6913407B617B6943F0A9
:100C600070637B6110E07B684FEA53534FEA0313D4
:100C70003A6902FA03F36FEA03037A6913407B616E
:100C80007B6943F070637B61FB78002B0AD07B6843
:100C90004FEA53534FEA03133A6902FA03F37A69AE
:100CA00013437B617B68002B06DA4FF00003C4F22C
:100CB00001037A69DA6105E04FF00003C4F2010331
:100CC0007A695A6007F11C07BD4680BC704700BFB7
:100CD00080B500AF4FF0010000F04CFF4FF0010075
:100CE00000F028FF00F05EFA4FF4803000F0AEFA1A
:100CF00000F0F0FA0346012B2FD14FF0000000F076
:100D00008FFB4FF0000000F0ABFB4FF0000000F055
:100D1000C7FB4FF4804000F0E5FB4FF480304FF408
:100D2000801100F019FB4FF0010000F039FB00BF0B
:100D30004FF0390000F0C8FC0346002BF8D04FF00C
:100D4000020000F03DFB00BF00F05AFB0346082BF9
:100D5000FAD14FF0000000F0EFFA80BD80B588B006
:100D600000AF4FF032004FF0010100F02FFC4FF0C8
:100D700037033B704FF00003BB704FF00103FB7073
:100D80003B46184600F074FF4FF036033B704FF0BF
:100D90000103BB704FF00103FB703B46184600F0A7
:100DA00067FF4FF48060C4F20000FFF7BBF94FF01B
:100DB000C8033B834FF49653BB824FF000037B8301
:100DC0004FF00003FB8207F114034FF48060C4F27C
:100DD00000001946FFF7FEFA4FF06003BB804FF0AA
:100DE0000103FB804FF00A037B814FF00003BB81BE
:100DF00007F104034FF48060C4F200001946FFF7C6
:100E000077FB4FF48060C4F200004FF00101FFF760
:100E100003FC4FF48060C4F200004FF00101FFF7C3
:100E20001BFC4FF001033B834BF68033BB824FF03A
:100E300000037B834FF00003FB8207F114034FF4A0
:100E40008050C4F200001946FFF7C4FA4FF48050F6
:100E5000C4F200004FF00101FFF74AFC4FF480504C
:100E6000C4F200004FF001014FF00102FFF71CFC3B
:100E70004FF48050C4F200004FF00101FFF7CCFBAB
:100E80004FF001033B834FF0F303BB824FF00003AD
:100E90007B834FF00003FB8207F114034FF4A05053
:100EA000C4F200001946FFF795FA4FF4A050C4F2BF
:100EB00000004FF00101FFF71BFC4FF4A050C4F2FB
:100EC00000004FF001014FF00102FFF7EDFB07F1C9
:100ED0002007BD4680BD00BF80B586B000AF4FF48F
:100EE0001050C4F2010000F037FC4FF400704FF0D6
:100EF000010100F041FB4FF001037B724FF0000352
:100F00003B614FF46023FB604FF000037B604FF0C8
:100F100001033B754FF001033B7207F104034FF4EB
:100F20001050C4F20100194600F05AFC4FF4105062
:100F3000C4F201004FF00A014FF001024FF0070325
:100F400000F01AFD4FF41050C4F201004FF00101FF
:100F500000F09EFC4FF41050C4F201004FF001016C
:100F600000F0B2FC4FF41050C4F2010000F0C8FCD5
:100F70004FF41050C4F2010000F0D2FC4FF41050B6
:100F8000C4F201004FF0010100F0DAFC07F118078C
:100F9000BD4680BD80B58CB000AF4FF001004FF072
:100FA000010100F0BFFA4FF001033B614FF0000375
:100FB000FB604FF00003FB6240F20003C2F200034B
:100FC000BB604FF480633B624FF08003BB614FF026
:100FD00020037B6242F24C43C4F201037B604FF476
:100FE0008073FB614FF000037B614FF40053BB62E1
:100FF00007F104034FF00800C4F20200194600F0A4
:10100000DBFD4FF00800C4F202004FF0010100F0D8
:1010100013FE07F13007BD4680BD00BF80B582B02A
:1010200000AF4FF01D004FF0010100F0A5FA4FF4A2
:101030000070C0F230004FF00101FFF7B9FD4FF42E
:101040004060C0F21A004FF00101FFF7B1FD4FF010
:101050000103BB804FF00303BB714FF00003FB7132
:1010600007F104034FF48050C4F201001946FFF762
:10107000AFFC4FF48073BB804FF00303BB714FF0A4
:101080001003FB7107F104034FF48050C4F2010018
:101090001946FFF79DFC4FF08003BB804FF0030320
:1010A000BB714FF01803FB7107F104034FF480503C
:1010B000C4F201001946FFF78BFC07F10807BD4693
:1010C00080BD00BF80B483B000AF786003E07B6870
:1010D00003F1FF337B607B68002BF8D107F10C072D
:1010E000BD4680BC704700BF80B500AFFFF7F0FD84
:1010F000FFF794FFFFF7F0FEFFF74CFFFFF72EFE20
:101100004FF48063C4F2000340F20002C2F2000216
:10111000118848F21F52C5F2EB12A2FB01024FEAFE
:10112000D21292B202F10A0292B21A874FF480638D
:10113000C4F200031B8F9BB20A2B0AD94FF48050D4
:10114000C4F201004FF480714FF00102FFF718FD67
:1011500009E04FF48050C4F201004FF480714FF069
:101160000002FFF70DFD48F2A060C0F20100FFF79A
:10117000A9FFC5E780B500AF4FF48050C4F200006E
:101180004FF00101FFF7C6FA80BD00BF80B500AF88
:101190004FF4A050C4F200004FF00101FFF7BAFA7B
:1011A00080BD00BF80B400AF4FF48053C4F202038F
:1011B0004FF48052C4F20202126842F001021A6037
:1011C0004FF48052C4F202024FF48053C4F202037F
:1011D00059684FF00003CFF6FF030B4053604FF404
:1011E0008053C4F202034FF48052C4F20202126828
:1011F00022F0847222F480321A604FF48053C4F2D9
:1012000002034FF48052C4F20202126822F48022D8
:101210001A604FF48053C4F202034FF48052C4F2B8
:101220000202526822F4FE025A604FF48053C4F264
:1012300002034FF41F029A604FF48053C4F202037A
:101240004FF00002DA62BD4680BC704780B483B0C4
:1012500000AF78604FF48053C4F202034FF4805221
:10126000C4F20202126822F480321A604FF48053F2
:10127000C4F202034FF48052C4F20202126822F454
:1012800080221A607B68B3F5803F03D0B3F5802FCE
:101290000DD019E04FF48053C4F202034FF4805292
:1012A000C4F20202126842F480321A600DE04FF478
:1012B0008053C4F202034FF48052C4F20202126857
:1012C00042F4A0221A6000E000BF07F10C07BD46FF
:1012D00080BC704780B582B000AF4FF000033B6028
:1012E0004FF00003FB714FF00003BB714FF0310072
:1012F00000F0EAF90346BB713B6803F101033B6070
:101300003B68B3F5A06F02D0BB79002BEED04FF055
:10131000310000F0D9F90346002B03D04FF0010350
:10132000FB7102E04FF00003FB71FB79184607F1F7
:101330000807BD4680BD00BF80B483B000AF034640
:10134000FB714FF00003C4F24223FA791A6007F1EF
:101350000C07BD4680BC704780B485B000AF786094
:1013600039604FF00003FB604FF48053C4F2020376
:101370005B68FB60FB6823F47413FB607A683B686E
:101380001343FA681343FB604FF48053C4F2020323
:10139000FA685A6007F11407BD4680BC704700BF69
:1013A00080B483B000AF0346FB714FF06003C4F21A
:1013B0004223FA791A6007F10C07BD4680BC7047DA
:1013C00080B485B000AF78604FF00003FB604FF44D
:1013D0008053C4F202035B68FB60FB6823F00303E5
:1013E000FB60FA687B681343FB604FF48053C4F2E0
:1013F0000203FA685A6007F11407BD4680BC7047C3
:1014000080B400AF4FF48053C4F202035B68DBB2D8
:1014100003F00C03DBB21846BD4680BC704700BF2A
:1014200080B485B000AF78604FF00003FB604FF4EC
:101430008053C4F202035B68FB60FB6823F0F00397
:10144000FB60FA687B681343FB604FF48053C4F27F
:101450000203FA685A6007F11407BD4680BC704762
:1014600080B485B000AF78604FF00003FB604FF4AC
:101470008053C4F202035B68FB60FB6823F4E06303
:10148000FB60FA687B681343FB604FF48053C4F23F
:101490000203FA685A6007F11407BD4680BC704722
:1014A00080B485B000AF78604FF00003FB604FF46C
:1014B0008053C4F202035B68FB60FB6823F4605353
:1014C000FB607B684FEAC303FA681343FB604FF489
:1014D0008053C4F20203FA685A6007F11407BD464C
:1014E00080BC704780B485B000AF78604FF00003D7
:1014F000FB604FF48053C4F202035B68FB60FB683F
:1015000023F44043FB60FA687B681343FB604FF4AD
:101510008053C4F20203FA685A6007F11407BD460B
:1015200080BC704780B483B000AF78600B46FB701E
:10153000FB78002B0CD04FF48053C4F202034FF41D
:101540008052C4F2020251697A680A435A610DE07E
:101550004FF48053C4F202034FF48052C4F20202EB
:1015600051697A686FEA02020A405A6107F10C0772
:10157000BD4680BC704700BF80B483B000AF7860C8
:101580000B46FB70FB78002B0CD04FF48053C4F259
:1015900002034FF48052C4F2020291697A680A434E
:1015A0009A610DE04FF48053C4F202034FF480526D
:1015B000C4F2020291697A686FEA02020A409A61F3
:1015C00007F10C07BD4680BC704700BF80B483B0F4
:1015D00000AF78600B46FB70FB78002B0CD04FF40B
:1015E0008053C4F202034FF48052C4F20202D16964
:1015F0007A680A43DA610DE04FF48053C4F20203C3
:101600004FF48052C4F20202D1697A686FEA020292
:101610000A40DA6107F10C07BD4680BC704700BF85
:1016200080B483B000AF78600B46FB70FB78002B72
:101630000CD04FF48053C4F202034FF48052C4F232
:101640000202D1687A680A43DA600DE04FF48053F1
:10165000C4F202034FF48052C4F20202D1687A68E5
:101660006FEA02020A40DA6007F10C07BD4680BC4F
:10167000704700BF80B483B000AF78600B46FB704A
:10168000FB78002B0CD04FF48053C4F202034FF4CC
:101690008052C4F2020211697A680A431A610DE0AD
:1016A0004FF48053C4F202034FF48052C4F202029A
:1016B00011697A686FEA02020A401A6107F10C07A1
:1016C000BD4680BC704700BF80B487B000AF034602
:1016D000FB714FF00003FB604FF000037B614FF0A4
:1016E0000003FB74FB794FEA5313DBB2FB60FB682A
:1016F000012B06D14FF48053C4F202031B687B61B7
:101700000FE0FB68022B06D14FF48053C4F20203B2
:101710001B6A7B6105E04FF48053C4F202035B6AED
:101720007B61FB7903F01F03FB60FB687A6922FA97
:1017300003F303F00103002B03D04FF00103FB740C
:1017400002E04FF00003FB74FB7C184607F11C0716
:10175000BD4680BC704700BF80B582B000AF7860E6
:101760007A684FF41053C4F201039A420CD14FF43B
:1017700000704FF00101FFF753FF4FF400704FF07E
:101780000001FFF74DFF26E07A684FF42053C4F2C2
:1017900001039A420CD14FF480604FF00101FFF732
:1017A0003FFF4FF480604FF00001FFF739FF12E078
:1017B0007A684FF47053C4F201039A420BD14FF48C
:1017C00000404FF00101FFF72BFF4FF400404FF0B6
:1017D0000001FFF725FF07F10807BD4680BD00BFE8
:1017E00080B485B000AF786039604FF00003FB60D3
:1017F0004FF00003FB727B685B68FB60FB6823F4BF
:10180000702323F48073FB603B681A683B681B7984
:101810004FEA03231343FA681343FB607B68FA68BB
:101820005A607B689B68FB60FA684FF2FD73CFF6E5
:10183000F1731340FB603B68DA683B689B681A43AE
:101840003B685B794FEA43031343FA681343FB6039
:101850007B68FA689A607B68DB6AFB60FB6823F44C
:101860007003FB603B681B7C03F1FF33DAB2FB7A49
:101870001343FB72FB7A4FEA0353FA681343FB608E
:101880007B68FA68DA6207F11407BD4680BC7047CE
:1018900080B483B000AF78600B46FB70FB78002B00
:1018A00006D07B689B6843F001027B689A6005E084
:1018B0007B689B6823F001027B689A6007F10C0744
:1018C000BD4680BC704700BF80B483B000AF786075
:1018D0000B46FB70FB78002B06D07B689B6843F4BB
:1018E00080727B689A6005E07B689B6823F4807255
:1018F0007B689A6007F10C07BD4680BC704700BF4B
:1019000080B483B000AF78607B689B6843F00802C6
:101910007B689A6007F10C07BD4680BC704700BF2A
:1019200080B483B000AF78607B689B6843F00402AA
:101930007B689A6007F10C07BD4680BC704700BF0A
:1019400080B483B000AF78600B46FB70FB78002B4F
:1019500006D07B689B6843F4A0027B689A6005E030
:101960007B689B6823F4A0027B689A6007F10C07F0
:10197000BD4680BC704700BF80B485B000AF7860C2
:10198000F970BA707B704FF00003FB604FF00003FA
:10199000BB60FB78092B27D97B68DB68FB60FA7892
:1019A00013464FEA43039B18A3F11E034FF00702AF
:1019B00002FA03F3BB60BB686FEA0303FA681340E3
:1019C000FB607978FA7813464FEA43039B18A3F13A
:1019D0001E0301FA03F3BB60FA68BB681343FB60A4
:1019E0007B68FA68DA6022E07B681B69FB60FA7842
:1019F00013464FEA43039B184FF0070202FA03F322
:101A0000BB60BB686FEA0303FA681340FB60797838
:101A1000FA7813464FEA43039B1801FA03F3BB60BD
:101A2000FA68BB681343FB607B68FA681A61BB788D
:101A3000062B27D87B685B6BFB60BB7803F1FF321A
:101A400013464FEA83039B184FF01F0202FA03F379
:101A5000BB60BB686FEA0303FA681340FB60F97868
:101A6000BB7803F1FF3213464FEA83039B1801FA58
:101A700003F3BB60FA68BB681343FB607B68FA68DA
:101A80005A6351E0BB780C2B27D87B681B6BFB603B
:101A9000BA7813464FEA83039B18A3F123034FF050
:101AA0001F0202FA03F3BB60BB686FEA0303FA6824
:101AB0001340FB60F978BA7813464FEA83039B180A
:101AC000A3F1230301FA03F3BB60FA68BB68134375
:101AD000FB607B68FA681A6326E07B68DB6AFB6060
:101AE000BA7813464FEA83039B18A3F141034FF0E2
:101AF0001F0202FA03F3BB60BB686FEA0303FA68D4
:101B00001340FB60F978BA7813464FEA83039B18B9
:101B1000A3F1410301FA03F3BB60FA68BB68134306
:101B2000FB607B68FA68DA6207F11407BD4680BC87
:101B3000704700BF80B485B000AF78604FF00003FD
:101B4000FB604FF40053C4F202031B68FB60FB68A8
:101B500003F03803FB60FA687B681343FB604FF4C3
:101B60000053C4F20203FA681A6007F11407BD4675
:101B700080BC704780B483B000AF78604FF40053EE
:101B8000C4F202034FF40052C4F20202126822F0BF
:101B900010021A604FF40053C4F202034FF40052D3
:101BA000C4F2020211687A680A431A6007F10C074E
:101BB000BD4680BC704700BF80B485B000AF786080
:101BC00039604FF00003FB607B681B68FB60FB68BB
:101BD00023F4FF4323F07003FB603B689A683B6883
:101BE0001B6A1A433B681B691A433B685B691A43CB
:101BF0003B689B691A433B68DB691A433B685B6A35
:101C00001A433B689B6A1343FA681343FB607B6883
:101C1000FA681A603B68DA687B685A603B681A6841
:101C20007B689A603B685A687B68DA6007F1140742
:101C3000BD4680BC704700BF80B483B000AF786001
:101C40000B46FB70FB78002B06D07B681B6843F0CB
:101C500001027B681A6006E07B681A684FF6FE7323
:101C600013407A68136007F10C07BD4680BC7047CB
:101C700080B487B000AF78604FF000037B614FF015
:101C800000033B614FF00F03FB607B68DB78002BA8
:101C900047D04FF46D43CEF20003DB686FEA0303D5
:101CA00003F4E0634FEA13237B617B69C3F1040310
:101CB0003B617B69FA6822FA03F3FB607B685B781F
:101CC0001A463B6902FA03F37B617B689B781A46EC
:101CD000FB6813407A6913437B617B694FEA031306
:101CE0007B614FF46143CEF200037A6812781146AB
:101CF0007A69D2B25B1883F800234FF46143CEF2C5
:101D000000037A6812784FEA5212D2B279680978E1
:101D100001F01F014FF0010000FA01F143F8221019
:101D200014E04FF46143CEF200037A6812784FEA70
:101D30005212D2B27968097801F01F014FF0010008
:101D400000FA01F102F1200243F8221007F11C070A
:081D5000BD4680BC704700BFD6
:0400000508000000EF
:00000001FF
